:040000008A159F2995
:08000600FA1FF213003008009C
:10000E007B15FB1F11280130F300F201F101F00105
:08001E00FA0DF20CFF3008009E
:0E002600F201F101F801F001F30100300800D1
:10003400FB14FB1F2428FF30F300F200F100F00052
:08004400FA0DF20CFF30080078
:10004C007C185C28FC182D287C197B282628720823
:10005C00A101031D4D287108F2007008F100780809
:10006C00F000F801A1157208031D4D287108F2006B
:10007C00F1007008F001A11121167208031D4D2822
:10008C007108F200F101A115720803196F282108FB
:10009C00031DF302031C73280310F21B5C28F80DDC
:1000AC00F00DF10DF20DF30B532873287B1B772801
:1000BC00701CF81F7728F00A0319F10A0319F20AC9
:1000CC00031D7728F20CF10CF00CF30A03197B28B2
:1000DC0077280130FC0013207E280230FC0007201A
:1000EC007E280430FC0003207E280830FC001A20F7
:0400FC0000000800F8
:0C010000000000000000000000000800EB
:06010C00FB15FF300800A6
:100112007B14FB1FF2019428FA1FFF30F200F1005A
:0A012200F000FA0DF20CFF300800A7
:0E012C00533083120313FD00FD0B9A280800C8
:10013A00A1017208031DB2287108F2007008F100CB
:10014A00F0017208A115031DB2287108F200F1012D
:10015A00A111211672080319C0282108F302031DF0
:10016A00031C0310C428F21BC828F00DF10DF20D70
:10017A00F30BB828C4280130FC001320CB28023026
:0E018A00FC000720CB280430FC0003200800F6
:1001980083120313FB01FA01F9018030F800F10C16
:1001A800F00C031CE0287408F90775080318750F8C
:1001B8000318FA07FB0A0310F01FE8287408FA0767
:1001C80075080318750FFB07FB0CFA0CF90CF80CF3
:1001D800031C7B08D428F3007A08F2007908F100A0
:0601E8007808F000080099
:1001EE00243083120313FC00B530FD00FC0BFD28F8
:0A01FE00FD0BFD28000000000800C2
:1002080083120313FB017308031941297208FA00CA
:10021800F217F3028E30F31F4429F309F30A08306A
:100228007302031C2729F300F10D7208F100F20193
:10023800083073022729031CF300F10DF10173083C
:10024800031D03102F29730803192F290310F20C1B
:10025800F10C2A29F30B7B1B711C3929031C392942
:10026800F10A0319F20AF21B5029FA1F5329F2095D
:10027800F10AF1090319F20A5329F201F10153298C
:100288007B14FB1F5629F201FA1F5629FF30F10093
:10029800F200FA0DF20C56290130FC005829003002
:1002A800FC005829FF30FC000319FC085C29892050
:0A02B8007108F0007208F100080060
:1002C2008312031372087606A100F901F80173087C
:1002D2007702031C84297708FD007308F7007D0864
:1002E200F3007608FD007208F6007D087508F2003A
:1002F200FD007108F5007D08F1007408FD0070082A
:10030200F4007D08F00077080319FD29FA0072084D
:10031200F217F61777087302F7000319B7290830A6
:100322007702031CAD29F7007408F90075087608F6
:10033200F400F500F60108307702031CAD29F7003E
:100342007408F9007508F400F50108307702031CFF
:100352007A08AD29F200FD2977080319B72903109D
:10036200F60CF50CF40CF90CF70BB029C429A11FFB
:10037200F909F409F509F609F90A0319F40A031946
:10038200F50A0319F60A7908F8077408740F0318B6
:10039200F00775080318750FF10776080318760F32
:1003A200F207A11BDD29031CED29F20CF10CF80C5C
:1003B200F00CF30FED29F9290318F129F809F009D6
:1003C200F109F209F80A0319F00A0319F10AF20A0B
:1003D20003198030FA06F5290130FC002620FF2996
:1003E2000230FC002620FF290430FC009D20FF295A
:1003F2000830FC001A20FF290030FC000000080031
:1004020083120313FB01FA01F901A001F801730D34
:10041200F80D7408F8027508031C750FF9027608C6
:10042200031C760FFA027708031C770F0001FB0208
:10043200031C0130A002F30D0730FC00730DF80D10
:10044200F90DFA0DFB0DA00D7408731CF8023A2A7F
:100452007508031C750FF9027608031C760FFA0261
:100462007708031C770FFB020001031C01304B2AA3
:10047200A002F80775080318750FF9077608031824
:10048200760FFA0777080318770FFB070001013090
:100492000318A007F30DFC0B1F2A720DF80DF90DBE
:1004A200FA0DFB0DA00D7408731C692AF802031CD7
:1004B2007508750FF9027608031C760FFA027708A1
:1004C200031C770FFB020001031C0130A0027A2AF1
:1004D200F80775080318750FF90776080318760FE1
:1004E200FA0777080318770FFB070001031801309A
:1004F200A007F20D0730FC00720DF80DF90DFA0D90
:10050200FB0DA00D7408721C982AF8027508750F6D
:10051200031CF9027608031C760FFA027708031C03
:10052200770FFB020001031C0130A002A92A750803
:10053200F8070318750FF90776080318760FFA07FC
:1005420077080318770FFB07000103180130A00793
:10055200F20DFC0B7D2A710DF80DF90DFA0DFB0D54
:10056200A00D7408721CC72AF8027508031C750FC7
:100572007608F902031C760FFA027708031C770F3C
:10058200FB020001031C0130A002D82AF8077508FB
:10059200750F0318F90776080318760FFA0777081C
:1005A2000318770FFB07000103180130A007F10DB4
:1005B200FC000730710DF80DF90DFA0DFB0DA00DC1
:1005C2007408711CF62AF8027508031C750FF902EB
:1005D200031C7608760FFA027708031C770FFB02DA
:1005E2000001031C0130A002072BF807750803184D
:1005F200F907750F76080318760FFA0777080318BC
:10060200770FFB07000103180130A007F10DFC0B67
:10061200700DDB2AF80DF90DFA0DFB0DA00D740813
:10062200711C252BF8027508031C750FF902760858
:10063200031CFA02760F7708031C770FFB020001F6
:10064200031C0130A002362BF80775080318750F3A
:10065200F90703187608760FFA0777080318770F59
:10066200FB07000103180130A007F00D0730FC0062
:10067200F80D700DF90DFA0DFB0DA00D7408701C2C
:10068200542BF8027508031C750FF9027608031C37
:10069200760F7708FA02031C770FFB020001031C96
:1006A2000130A002652BF80775080318750FF907CA
:1006B2007608760F0318FA0777080318770FFB07F7
:1006C200000103180130A007F00DFC0B392B701844
:1006D200782BF807740875080318750FF907760860
:1006E2000318760FFA0777080318770FFB0708003D
:1006F200831203137408003A031D942B7508003A01
:10070200031D7608942B003A031D942B7708003AB8
:10071200031D942BFF30F000FF30F100F2007F3018
:10072200FF30F3002F2C8312031377080319232CB5
:1007320073080319262C72087606FA008039F2171C
:10074200F617A1017208F8007108FC007008FD009C
:100752007408FD027508031C750FFC02031C760861
:10076200760FF802F801FC01FD01031CBF2B0310F8
:10077200F20CF10CF00CF80C0130A100F302770836
:10078200031CC92B7E302107F3070318292CCE2B1B
:100792007E302107F307031C2C2CFA071830FD0DBD
:1007A200FC0DF80DF00DF10DF20DA10D7408F00223
:1007B2007508031C750FF1027608760F031CF2020E
:1007C200760DA104211CE72B7D14F22B7408F0078F
:1007D20075080318750FF1077608760A0318F207F1
:1007E2007D10FA031F307A05031DD02B7B1B7D1C65
:1007F200192C0310F00DF10DF20D7408A10DF00289
:100802007508031C750FF1027608031C760FF202BD
:10081200760D21040139FD070318FC0AF80A0319B1
:10082200031D192CF80CFC0CFD0CF30A0319292CDE
:10083200FA1FF8137808F2007C08F100F0007D0836
:1008420000302E2C013086202E2C023013202E2C2C
:0E08520004301A202E2C083007200000080069
:1008600083160313B401B5010130B6000030B700A0
:10087000B501B40180303506F000803033067002D7
:10088000031D442C320834020318582C3708F0009A
:100890003608F1003008F4003108F500CC2070086B
:1008A0008316B6007108B700B40A03193A2CB50ACA
:0A08B0003608F0003708F1000800D8
:1008BA00710DF80DF90D7408F8027508031C750F0F
:1008CA00F902F10DF00D0F30FC00710DF80DF90D64
:1008DA007408701C762CF8027508031C750FF9024F
:1008EA007B2CF80703187508750FF907F00DF10D41
:1008FA00FC0B6A2C7018872C7408F8077508031803
:08090A00750FF9070000080059
:10091200031383127008F8007108F000F101F2016C
:10092200F301FB01FC019630F300FA01F01F9F2C4A
:10093200F809F80AF0090319F00AFA177008F10029
:0C0942007808F000F801F2019D20080088
:10094E00831603138312AE2CB01B8711B02C8312A7
:10095E0087158316301BB62C83120711B82C07157A
:10096E0083128316B01ABE2C83128710C02C8312EA
:10097E0087148316301A07108312C62CC82C8312C4
:10098E0007144618CC2C8716CD2C871280200716FC
:10099E0007128316B019D62C83128711D82C831206
:1009AE00871583163019DE2C83120711E02C831263
:1009BE0007158316B018E62C8312E82C87108312C5
:1009CE00871483163018EE2C83120710F02C831226
:1009DE000714F42C46188716F52C8712071680205C
:0E09EE000712FC2C461CF720FD2C962008005A
:0E09FC008312031348088A004708820008008F
:100A0A00023083160313B0000030B1002030B20068
:100A1A0000303024B3002808F4002908F500CC205F
:100A2A0089242830F4006B30F5006E30F6009930D6
:100A3A0000307923F700F4000030F5000030F600AA
:0A0A4A007E30F7006121042108004E
:100A540083160313AD01AE0100302E02031D342DA5
:100A64002D020A3003183F2D2D082C078400203056
:100A74008000AD0A0319AE0A2E2D2D082C07840020
:100A840080010130AD02031CAE032D082C07AF001A
:100A94000A30F601F501F400F7012808F0002908EE
:100AA400F1002A08F2002B08F30001227808F00074
:100AB4007908F1007B08F2007A08F30030307007FF
:100AC400F40083162F088400740880000A30F400B0
:100AD400F501F601F0002808F7012908F1002A08B9
:100AE400F2002B08F300012270088316A800710895
:100AF400A9007208AA00AB0073080030F400730662
:100B0400031D8E2D74087206031D8E2D7408710644
:100B1400031D8E2D7008031D003A912D962D013072
:0A0B2400AD02031CAE03472D0800CC
:100B2E0083120313461083162808B000A724461418
:020B3E000800AD
:100B4000103083120313FD00FD0BA42D00000800DC
:100B5000031383127408003A031DB72D7508003A79
:100B6000031DB72DFF30F0007F30102EF1008312EF
:100B70000313FD01F901F801700471080319003431
:100B800071087506FA00FA1BFD09FB01F51FCD2D52
:100B9000F409F509F40A0319F50AD32DF11FF00938
:100BA000F109F00A0319F10A71087504FA00FA1B39
:100BB000E92D5D247B18FC2DFD1FF0090034F1099F
:100BC000F00A0319F10AF809F909F80A0319F90AF0
:100BD0000034F51FF82DF11BF42D71087008F90091
:100BE000F800F101F001DC2DF101F001F00A003410
:100BF000F109F009FB0AD92DF80A0319F90A78025C
:100C00007408031DDC2D75087902031DDC2DF90124
:100C1000F801F00A0319F10AF11FDC2D0000FF347E
:020C20000800CA
:100C220083160313A801AA01AB01AC0010300430F3
:100C32002B0203183F2EF0308312880083162C09F2
:100C42008800802080200F3083120805F000700891
:100C52008316A9007008392E03192A08A80029084A
:100C62000319372EA90CA913A80A302E0430AB00A1
:100C7200AC0D2C100430AA07AB0A182EF00028087D
:020C8200080068
:100C840083120313EB01EC0164088316A0008312A2
:100C9400A10083166508831266088316A2008312D6
:100CA40067088316A300803083126706F000803043
:100CB400672E031D700200306602031D672E00308C
:100CC4006502031D672E003064020318902E003065
:100CD400EB000130EC00F401F501F601F7016408C2
:100CE400F0006508F1006608F2006708F300A00050
:100CF400831674087508A1007608A2007708A3007B
:100D04007008A0027108031C710FA1027208031C71
:100D14007308A202720F031C730FA3028316200828
:100D2400A8002108A9002208AA0023086808831241
:100D3400AB008316AC002A250B308312E900003087
:100D4400EA006A08A92E031D003C6908003C031848
:100D5400C42E69086807F20001306902F00000300F
:100D6400031CF1006A02013E700868078400000851
:100D7400F00072088400700880000130E902031C4E
:100D8400EA03A32E68088400203080006B086C04FA
:100D94000319E22EE901EA016807690884000008E2
:100DA400203A031DD92EE90A0319EA0ACE2E01308E
:100DB400E902031C6908EA03680784002D308000F7
:020DC400080025
:100DC60083120313E4018511E5010D30FB00AF30FA
:100DD600FC00B630FD00FD0BEE2EFC0BEE2EFB0BE1
:100DE600EE2E851100000430E4000030E50080306E
:100DF6006506F00080307002031D032F0030031CCF
:100E06006402272F6408F0006508F100F00DF10D6B
:100E160070107008363E840000088600000000004E
:100E260000000000000005140000000000000000A3
:100E36000000051000000000000000000000013066
:100E4600E402031CE503FA2E8514000000000000EE
:080E56000000000085100800F7
:0A0E5E00FF3083160313880008001C
:100E6800732F313083120313E4000030E500D52FCF
:100E78003230E4000030E500D52F3330E400003094
:100E8800E500D52F0030E4003430E500D52F3530AB
:100E9800E4000030E500D52F3630E4000030D52FCF
:100EA800E5003730E4000030E500D52F3830E400A5
:100EB8000030E500D52FE40039300030E500D52FAB
:100EC8002A30E4000030E500D52F3030E400D52F7B
:100ED800E50000302330E4000030E500D52F831210
:100EE800031300306506031D64060D307B2F0319BC
:100EF800352F00306506031D832F10306406031953
:100F08003C2F003065060E308B2F031D6406031935
:100F1800412F00306506031D932F0930640603191D
:100F2800462F00309B2F031D65060C3064060319FD
:100F38004B2F00306506031DA32F0A3064060319E2
:100F4800502F031D65060030AB2F053064060319CA
:100F5800552F00306506031DB32F083064060319AA
:100F6800650600305A2F031DBB2F0630640603198F
:100F78005F2F00306506031DC32F01306406003063
:100F8800642F03196506031DCB2F0430640603196B
:100F9800692F00306506031DD32F023064066E2FBB
:0C0FA80003196408F0006508F10008005F
:100FB400112670088312E400F00008050F300319AD
:0C0FC400E52FA025DE2F6408F0000800D7
:100FD000FE248A110A128000840AC70A0319C80A6B
:080FE000F003031DE82F0800D7
:101000008316031307128712071087100711871121
:1010100007128312871287110711871007108A1190
:101580005334693467346E3461346C3420344734F6
:1015900065346E3465347234613474346F3472344B
:0215A000003415
:0615A20048347A340034E5
:1015A8000034003400340034003400340034003493
:0415B80000340034C7
:0C15BC0046347234653471343A34003423
:02400E004A2F37
:00000001FF
